:100000000A128A11562E00308A000408840A8207D8
:100010000034483465346C346C346F3420345734D5
:0A0020006F3472346C346434003421
:100CAC0083010A128A11CD2E00300A128A1167268E
:100CBC000A128A1101300A128A1167260A128A1145
:100CCC000800F30083120313061173080A128A1129
:100CDC0081260A128A118312031386151A30F20028
:100CEC00F830F100F10B782EF20B782E64008312A1
:100CFC00031386110800F000701C852E862E8A2E98
:100D0C008312031306168D2E831203130612F01C86
:100D1C00902E912E932E8616942E8612701D972E41
:100D2C00982E9A2E06179B2E0613F01D9E2E9F2E84
:100D3C00A12E8617A32E8613A32E0800F8000030D0
:100D4C00F6000030F700BE2E7608780784000A12F1
:100D5C008A1103200A128A110A128A110A270A120E
:100D6C008A110130F6070318F70A0030F707BE2E78
:100D7C007608780784000A128A1103200A128A1155
:100D8C000038031DCA2ECB2EAA2ECC2E080083169B
:100D9C00031386010A128A11A2270A128A11D62E6F
:100DAC00F4010314F40D01300A128A114B270A12B4
:100DBC008A1101300A128A11A4260A128A110A1207
:100DCC008A115A260A128A11F4010314F40D023006
:100DDC000A128A114B270A128A1165300A128A11DB
:100DEC000A270A128A113330FD008930FC000030CA
:100DFC00FB00FB0BFF2EFC0BFF2EFD0BFF2ED62E4C
:100E0C00D62E0A128A110028F50075080F39F10048
:100E1C007108F3007508F039F1007108F4008312C1
:100E2C00031306157408F10004300310F10CFF3E97
:100E3C00031D1B2F71080A128A1181260A128A11AE
:100E4C008312031386152130F2007630F100F10B7A
:100E5C002D2FF20B2D2F64008312031386117308B0
:100E6C000A128A1181260A128A118312031386151B
:100E7C002130F2007630F100F10B422FF20B422FB1
:100E8C0064008312031386110800F7007708013AF7
:100E9C00031D512F522F762F7408803EF5007508D4
:100EAC00F8007808F50004300310F50CFF3E031D24
:100EBC005A2F7508F6007608F9007408803E0F3931
:100ECC00F5007508FA0079080A128A1167260A12C9
:100EDC008A117A080A128A1167260A128A11A12F1E
:100EEC007708023A031D7B2F7C2FA12F7408C03E7C
:100EFC00F5007508F8007808F50004300310F50CBF
:100F0C00FF3E031D842F7508F6007608F90074085F
:100F1C00C03E0F39F5007508FA0079080A128A11DB
:100F2C0067260A128A117A080A128A1167260A128F
:100F3C008A11A12FA12F080000300A128A118126D4
:100F4C000A128A118230F500DD30F400F40BAC2F5C
:100F5C00F50BAC2FB12F03300A128A1167260A1237
:100F6C008A112130F5007630F400F40BBB2FF50B11
:100F7C00BB2F640003300A128A1167260A128A11E9
:100F8C004830F5006C30F400F40BCA2FF50BCA2F67
:100F9C00640003300A128A1167260A128A11023081
:100FAC000A128A1167260A128A1102300A128A1151
:100FBC0067260A128A1108300A128A1167260A1249
:100FCC008A1100300A128A1167260A128A110C3013
:100FDC000A128A1167260A128A1100300A128A1123
:100FEC0067260A128A1106300A128A1167260A121B
:040FFC008A1108004E
:00000001FF
